:0200000407FCF7
:10000000285DFC07B901FC07C101FC07D901FC0709
:1000100000000000000000000000000000000000E0
:10002000000000000000000000000000F101FC07DB
:100030000000000000000000F301FC07F501FC07D0
:100040005D1EFC079B1EFC07A526F0076919FC072F
:10005000811AFC07F701FC070718FC07F701FC07EA
:10006000F701FC07F701FC073D12FC074112FC07F2
:100070004512FC074912FC074D12FC07F701FC076B
:10008000CD12FC07D51CFC07B91CFC07F701FC07C7
:10009000F701FC07F701FC07F701FC07F701FC0774
:0800A000000000008E070E00B5
:0200000407FCF7
:100110000348854604F08AFE004800473D02FC077C
:10012000285DFC0710B51F480189C908C900018175
:10013000018A1D4CC90713D08088002810D11B48A4
:100140001949428820310A8182888A80C2880A80BF
:10015000618AFF22813200889143C001014361829C
:100160001349062008800F2000F00EF8012000F04F
:100170000BF8002000F008F86089042188436081B2
:100180000020208062B610BD002809DBC106C90E20
:100190000120884007490860BFF34F8FBFF36F8F7E
:1001A000704700000003005000000050A000FC0752
:1001B0000034005080E100E00F4880470F480047BE
:1001C00004207146084203D0EFF309800C49084728
:1001D000EFF308800A49084704207146084203D01B
:1001E000EFF3098007490847EFF3088005490847FE
:1001F000FEE7FEE7FEE7FEE72501FC071101FC072D
:100200000D02FC070902FC07FEE7000005200007BD
:10021000018A042211430182018940221143018194
:10022000054A01211160418A012289088900D2030F
:10023000114341827047000080E200E008B500F001
:10024000BEF800F041FB01250026052424070CE040
:10025000284600F0FBF90421684600964DF76EFC35
:10026000002817D000F0B5FA14E02089000611D557
:1002700001208007006B00040CD498480078C00768
:1002800008D15DF7BAF8002000F0E0F99448007852
:100290000428DDD072B601F091FE042806D00228B1
:1002A0000BD0032809D0012814D014E08D48007821
:1002B000012801D0032000E0022000F04AF8A08AC3
:1002C000C00602D588490820088030BFA08A00F007
:1002D00004F800E030BF62B6C7E710B500F07EF961
:1002E000824902280CD105200007408AC005820FF0
:1002F0007F4802800A8942808A8882800A88C28078
:1003000048896021C00500280ADB784860300088F1
:10031000C00705D0754A2032508A88432030508269
:10032000744882888A43203282807348C0780028CB
:1003300007D07248006801898AB2416803205CF7DF
:10034000BDF903F068FB6E48016904229143016125
:1003500010BD38B56946052408702407218A054672
:1003600004221143218200F063F860484189602231
:10037000C905002905DB5D4B2033598A9143403183
:1003800059825C498B88934340338B80022D01D086
:10039000032D13D1818849084900818000200090F5
:1003A0000099491C00911429FADB618989088900A8
:1003B000491C618161894906FCD5608038BDF0B572
:1003C0005048514905230127504A884201D31C4611
:1003D00004E0904201D33C4600E000244C4D4D4ED9
:1003E0004548AD194C4E8470AD190126B6034560E1
:1003F000B54201D8142500E000252540474C457042
:100400008C4213D2464B2546EB18944205D38B42BF
:1004100001D211230AE03B4608E0934201D21423A3
:1004200004E08B4201D2102300E000230370F0BDF2
:10043000F8B5022801D0032844D1314A13690421B8
:100440000B4313612B4A203A93895B085B0093812D
:1004500005242407284D022835D0608A884360820D
:100460006868AE78C01C870801F072FB608A1021B2
:10047000084360822B487F1E0762EFF31080012142
:1004800081F310882188802291432180002800D0A8
:10049000012080F3108815484089C0050AD501F075
:1004A0004BFB0B2000F0A8FD1048603001880122B2
:1004B0001143018003205CF727F9002809D00120AF
:1004C000E8702683F8BD618A1020814361826E78CE
:1004D000F0E70020E87028780640F2E754BAFC07FD
:1004E000DC8CFC07B4BAFC0700330050200000503D
:1004F000A000FC0720030050C08BFC0758B9FC0784
:1005000000ED00E0C08BFC070070FC070040FC071A
:100510001001FC0750550000000004F8285DFC079E
:100520000C0400000000F407704770B50D4600246D
:1005300042F7E5F92855641CE4B2202CF8D30020DA
:1005400070BD10B560F718FD10BD1FB5020E6946ED
:100550000A70020C4A70020A8A70C870684660F716
:10056000F3FC1FBD7047704705210907488A012227
:1005700080088000D2031043488270472F480178DA
:10058000002902D08021417070472D490020087059
:100590002C49C870704729490A78002A03D00028DE
:1005A0000CD002200BE0002801D0022000E0012046
:1005B0002349087023490120C8707047012080300A
:1005C00048707047002805D0012804D0022804D1C3
:1005D0000120E0E7D2E70020FBE770471849002040
:1005E0000978002904D0012903D0022900D1022072
:1005F00070470120704711490120C87070470F49AA
:100600000020C87070470D48C07870470020EFF395
:100610001081012282F31088052212071289120626
:1006200005D40948028901231A430281184600298A
:1006300000D0012181F3108870470000C88BFC07AF
:10064000B4BAFC0754BAFC070033005010B5FE4C96
:10065000A178002921D0FD49002803D0088840074F
:10066000FCD402E00888400717D4CA88888811049F
:100670000A180020A070F64800235043800B401C4D
:100680004008E0611F204006492162F7E9FEE1626F
:10069000A06264214843000CA06110BDEB49488072
:1006A0000888032210430880088804221043088029
:1006B000E54901208870704770B505200007018961
:1006C00030229143018101898022114301810189F6
:1006D000082211430181DF490A88520852000A802A
:1006E0004389182293434381048940231C43048196
:1006F000048A0425AC430482848AA407FCD5D24D25
:10070000AA246C61CD8801240F263602B5430B263E
:100710003602AD19CD80CD882543CD8044899443E0
:10072000083444814A88520852004A80018999431A
:100730000181012080070168821591430160C6484C
:1007400001683F22520291434214891801600168F6
:1007500002031143016070BD10B5BB490122D203F1
:10076000C969904205D304F073FB8905800A0843E8
:1007700010BD4843800A10BDEEE710B5B249896943
:100780004843B649401849005EF73CFC10BDF4E709
:1007900070B500F0BAFB0446FFF7F9FFAA4D2881B7
:1007A00020463C30FFF7F3FFAD49001D88602A89E1
:1007B0001018C01DAB4A48601278022A01D11130CE
:1007C0004860FFF7D9FFA849401880B25CF7A6FE41
:1007D00070BDF0B5A54985B00120C863C86B00287D
:1007E000FCD101208007C069974C2169884201D261
:1007F000002121611922411AD20191422AD320619C
:100800009B4801880391418802918788C68899494D
:1008100003C900900191684600F036FF01F00EF820
:100820000546012020567F280CD0281A40B2002807
:1008300001DA404240B2082805DBE068401CE06075
:1008400001F073FD65708A48029941808780C680F7
:100850000399018005B0F0BD0020704710B58649AE
:1008600000200860FFF794FF01208007016B49001A
:100870004908016310BD08B57349888075498A88A5
:10088000520852008A80002200920099491C00916F
:100890001429FADB052109074B899B089B005B1C87
:1008A0004B814B895B06FCD54880E120C00000925B
:1008B000521C00928242FBDB4889800880004881FC
:1008C00048890006FCD508BDF8B56C4808240480AA
:1008D00000F0D8FB6A4DA988684601800088C046B0
:1008E000C046684600880426B0433ED00020A88059
:1008F0006348203001880F22920211430180554A3B
:100900002032518A21435182524960310B88062599
:10091000AB430B800588CB011D430580558A9D4361
:100920005582938A0E25AB439B1D9382494B5D896B
:10093000EF05544D0F881DD5AF4315017D190D806E
:100940000D880F022D052D0DED190D80058825430D
:1009500005800488B44304800C88640864000C801B
:1009600001884024A143018020E0288A40084000FB
:100970002882BDE7AF4303256D027D190D800D88E8
:100980000F273F033D430D800588A543058004885C
:10099000B4430480958A03246402A54395820C889D
:1009A00001252C430C8059894907FCD50188032473
:1009B00021430180548A60218C43203454828288F0
:1009C0008A432032828001201F4D0524287024078D
:1009D000E08AC02188438030E082188A000A000241
:1009E0001882188B1C2188430830188301F0B0F856
:1009F000022001F078F8244E3069C0B2AA2868D0ED
:100A0000012021880C229143800001432180C046AF
:100A1000C0460D48203000F0A1FA00F013F900F0B4
:100A200071FA002857D000F06DFAFFF724FF7F20FD
:100A30006870B06A0A49086001F0BAF800F058F826
:100A400002F0E9FF012021E0D08BFC0700160050E6
:100A500011110100200000500002004020A10700F9
:100A60006056FC07B4BAFC07E2040000C000004076
:100A7000001500501C51FC07A8B9FC0700330050BA
:100A800000030050000F0000C07FF80741F73DFF52
:100A9000FFF712FE1448006841F7DCFB1349002001
:100AA000C870087101208007016882151143016038
:100AB00001F0C4F81E20FFF7F1FD0120FFF7C6FD8D
:100AC000FFF75CFD02F0CBF902F00CF8FFF7C6FE71
:100AD000F8BD032095E73069C0B2AA2801D06E2086
:100AE000A3E78020A1E700004CB9FC0754BAFC073B
:100AF00030B533483349006893B0884205D00522A9
:100B00005202314931485EF7F7FA314C31492046FB
:100B10005EF70BFB0721304809025EF706FB04F085
:100B20006DF92F492D4808602E4800250580302298
:100B30002D492E485EF7E0FA28490822083903C9F2
:100B40001191109010A92A485EF7D6FA2349402245
:100B5000283168465EF7D0FA4022694625485EF79C
:100B6000CBFA2548264905702448086026492548BF
:100B7000086027492548086026490A200870264849
:100B80002649057032200870254905200860254A4D
:100B90000121116024490860244906200860244985
:100BA00007200860234908200860FF2022490730F9
:100BB0000860224908602248046013B030BD00007C
:100BC0009CB8FC076587341200B0FC07A08EFC07B8
:100BD00000A0FC07AC14000000B9FC072C51FC0776
:100BE00060BAFC07008CFC077CFCF10700BAFC072C
:100BF000DAB9FC07B0BCFC07FDB9FC07603FF2079F
:100C000050B9FC07B44EFC0754B9FC073050FC0740
:100C100058B9FC07B0B9FC07B1B9FC07D9B9FC0752
:100C20005CB9FC0760B9FC0764B9FC0768B9FC074C
:100C30006CB9FC0770B9FC0748B9FC0744B9FC075C
:100C40004CB9FC07F0B5B94C89B00020207660762D
:100C500003900120C046C046B5480069B5498842A6
:100C600002D0C81709B0F0BDB14F0425403FE819C4
:100C7000016D0191090F092910D0012201989207F5
:100C8000904272D3AC4A90426FD8AC490835884242
:100C90007AD1E819C16CAA48418099E0019A01997A
:100CA0001204C9B2160E11292FD007DC0B005EF713
:100CB00077FA086868686868680D1C6812390B0064
:100CC0005EF76EFA063445555F585D5F207EB200D0
:100CD000C1009648403808189549143169185EF7E4
:100CE0000BFA207E801920764BE0607EB200C100B6
:100CF0008E48403808188E491030143169185EF754
:100D0000FBF9607E801960763BE0416D89B2049109
:100D1000406D000C01460290049800F0F9F8A080A4
:100D20000299049800F0FCF8E0802AE0416D89B255
:100D30000491406D000C01460290049800F0E8F820
:100D400020810299049800F0EBF8608119E0039883
:100D500006A9800040187649B200143169185EF780
:100D6000CBF90398801903900BE027E00CE0406D6D
:100D7000608206E0416D6D484038016401E0406DDD
:100D8000A082B000451946E06C492639884203D15B
:100D9000E819C06CE0821BE06849091F884204D151
:100DA000E819C06C6649888012E0644908398842B5
:100DB0000ED1E819C06C6249C88009E0072927D024
:100DC000082928D00A2926D0062924D0401C06D07C
:100DD0005748103029185B48814200D247E70698EF
:100DE000A0810798050C86B22946304600F090F89D
:100DF000E0812946304600F093F82082207E4008AA
:100E00002076607E40086076A08A002805D007E042
:100E10000020C046C0462D1DDAE77D20C000A0821C
:100E200000201FE7F8B5414C0025403C3F4F24E02F
:100E3000EE00A059444988421AD130190090406808
:100E4000800A400414D001F055FD092810D90098FB
:100E5000032240681202014609041040890E08432B
:100E6000A1590860009839494068C001C00D02E0EE
:100E700030194068A15908606D1C387EA842D7DC43
:100E8000F8BDF8B5294C0025403C2746403717E00F
:100E9000E80006192E48316981420DD101F02AFD82
:100EA000092809D92B49706908402849098849044B
:100EB00008433169086002E03069716901606D1CA6
:100EC000787EA842E4DCF8BD18490420085E70472B
:100ED00016490620085E704714490820085E7047CE
:100EE00012490A20085E70471048808970470F49F0
:100EF0000E20085E70470D491020085E70470B48B1
:100F0000408A70470948C08A70470848808A7047FD
:100F1000081A0104890C40180F49401800B27047A4
:100F2000C2008018401A0004C0147047448CFC07AB
:100F3000C07EF807A5A5A5A54C420050280000508A
:100F4000A000FC07C07FF8074C1000406C56FC075F
:100F500038300040FFFF01FC0100FFFF10B5062202
:100F600001495EF7C9F810BDD47FF80705200007D6
:100F7000018830221143018001880322114301803E
:100F800070470520000701883022914301800188C5
:100F9000890889000180704736490A8B03231B02A8
:100FA0009A43000202430A83704733498A8A032323
:100FB0005B029A43C3085B021A438A828A8A072328
:100FC000DB0240079A43800C02438A822A48403061
:100FD00001880122114301802748203841894907AF
:100FE000FCD570472448818A808A4905890F80048E
:100FF000400FC900081870471F498A8A03235B0203
:101000009A43C3085B021A438A828A8A0723DB0257
:1010100040079A43800C02438A82704710B5044609
:10102000154820384089C00502D40120C04310BDB6
:1010300000F07FFD002806D0FFF7D4FFA04202D9C0
:101040000020C04310BD0C48408AC00408D40B489F
:101050000088000704D4082C02D20420C04310BD2D
:1010600007480121047041702046FFF79EFF0020D1
:1010700010BD000020300050400000502003005000
:101080007056FC07704710B5794C400100194900B3
:1010900008181A43C28010BD754A40018018012209
:1010A0008A4082807047724A4001801801228A403B
:1010B0004280704770B506460498144600280D46D5
:1010C000304602D0FFF7EFFF01E0FFF7E5FF2246D1
:1010D00029463046FFF7D7FF70BD654A40018018AA
:1010E000008801228A40104000D001207047FFB5DF
:1010F00083B060A00068174600900A3F4020B840C7
:10110000019014460D9E80B200F0A2F8002E01D08E
:10111000012100E00021584D8140AA8901988243B5
:101120001143A9813F2000F093F88640A8898009E7
:1011300080010643AE812026BE40B0B200F088F8A0
:101140000C998140288AB043014329820126304608
:10115000B840074680B200F07BF806998140288AA3
:10116000B843014329820F2000F072F803996A46C0
:10117000525C0499511881403F4862004038101871
:10118000828D1209120111438185A007C20EFF2131
:10119000914080209040002C08DBA308374A9B0038
:1011A0009A1813688B43034313600AE02207120F57
:1011B000083A9308324A9B009B18DA698A43024333
:1011C000DA61002C04DBE006C00E86402D48066084
:1011D00007B0F0BD70B5012421460A3881400D46A4
:1011E00088B200F035F884402348C189A9430C43F4
:1011F000C48170BD02460A3A042A04D8224A8000FB
:10120000801880388165704710B504460A38042874
:101210000AD82046FFF7DEFF1B49A000401880389F
:10122000806D002801D0804710BD002CFCDBE1065A
:10123000C90E012088401549086010BD0A20E3E767
:101240000B20E1E70C20DFE70D20DDE70E20DBE7D8
:1012500000280BD0411E4840C003010C002002E0D2
:101260004908401C80B20029FAD17047102070470D
:1012700000300050010000000014005000E400E0C5
:1012800000ED00E000E100E0608CFC0780E200E09F
:101290008307FF22DB0E9A408907090E9940002838
:1012A00008DB830856489B001B18186890430843C6
:1012B000186070470007000F0838830851489B00EA
:1012C0001B18D86990430843D861704710B5FFF7E1
:1012D00058FE0522120790884B49000504D54B4B58
:1012E0001C880520A04311D09088C30648481FD50C
:1012F0008388DB071CD003881B0619D50122828056
:10130000028880239A430280486822E018880422D9
:101310001043188018884008400018800C68002C82
:1013200005D00220185E995E0A229A5EA04710BD81
:101330009288D206FBD582889207F8D50288D2051A
:10134000F5D5022282800288FF2301339A4302806E
:1013500088680028EBD0804710BD70B505242407AD
:10136000A58810263543A580294C0425A58025880D
:101370009B06AD09AD019B0E1D432580A181521E28
:10138000D1B26180218880221143218020810221F5
:101390001020FFF77DFF102000F029F870BD70B518
:1013A00005242407A58810263543A580184C082558
:1013B000A58025889B06AD09AD019B0E1D432580A8
:1013C000E181521ED1B26180218832011143218016
:1013D000608102211020FFF75BFF102000F007F86A
:1013E00070BD094948607047074988607047002808
:1013F00005DBC106C90E0120884006490860704718
:1014000000E400E000ED00E0748CFC0700020050F6
:101410000001005000E100E01CB544490869496939
:1014200000900191012000F083F9684600F02CF94A
:1014300000F072F900F0F0F9044600F061F9E121E2
:101440002046090148433A495DF7DCFD80B21CBDE6
:101450001CB536498869C96900900191684600F059
:1014600013F90121002000F03AF900F055F900F0DD
:10147000D3F9044600F02DF900F042F9E1212046AD
:10148000890048432A495DF7BDFD2A49401880B2CA
:101490001CBD264980000858004710B52649097828
:1014A000012905D02249353188420FD2002010BDD4
:1014B0001F49B7318842F9D3204988420AD82049C8
:1014C000401864214843872189000CE01B49A0395A
:1014D000884201D9642010BD194982314018642125
:1014E0004843FF21FF315DF7A3FDC0B210BD114994
:1014F00010B5FA31884201D2002010BD114988424E
:1015000001D9642010BD1049401864214843890066
:101510005DF78EFDC0B210BD10B50446FFF7B9FFF0
:10152000024AA10008325158884710BDA451FC0757
:10153000FF07000052030000F456FC07D20A000027
:101540004AF7FFFFDC050000B4FBFFFFEC48018811
:1015500001221203914301807047E948018801226A
:10156000120311430180642000BF401EFCD170476C
:10157000E349CA88D208D2000243CA807047E049D2
:10158000CA8870239A4300010243CA807047F8B5A5
:10159000050043D0DA4C287821884022914380010D
:1015A000014321806878FFF7EAFF2878002803D1FB
:1015B00068780009FFF7DCFFE87804260128208816
:1015C0002DD0B04320802879A1880002C9B2014300
:1015D000A180E08801274006400F7F02042820D028
:1015E000FFF7B4FFA97860880F22520290434902A6
:1015F00008436080687961888908890001436180B7
:10160000A8790128208837D0B8432080E9796088FC
:10161000FF22C1329043890108436080F8BD304306
:10162000D0E7FFF76CFCB7490028088001D1B64825
:101630000880FFF792FF20883843208021884020CF
:101640008143014321806088304360806088C0040A
:10165000C00C608060880F21490288430843608085
:101660006088FF21C1318843FF21813108436080B8
:10167000608880088000D0E73843C6E7A04801882A
:10168000012211430180704770B505469C4C002033
:1016900020802120000160804020A080FFF724FCF2
:1016A000A081A189702081434031A181062000F0F2
:1016B000E5F82846FFF76BFFFFF7E0FF70BD9048A5
:1016C0004188082211434180142000BF401EFCD1F4
:1016D00070478B484188082291434180704710B47D
:1016E000874A13880124E402A343C0020343138002
:1016F00050883023984309010843508010BCDEE72E
:101700007F48018849084900018070477C4801886A
:10171000022211430180704700B5FFF7F7FF7848B8
:1017200001888907C90FFBD10121C181008A00BD51
:10173000F8B5734C05462088009067880020FFF7B5
:10174000A3FF608804210843608060880F2149025C
:10175000012388435B0218436080208898432080DF
:101760006188FF20C130814301436180208840218E
:101770008843A901084320802089800A80021843F9
:1017800020816089800A800218436081208880213E
:10179000084320802188581081432180FFF7BCFF37
:1017A0008009FF38FF38023886B22088FF210131D6
:1017B00008432080FFF7B0FF8009FF38FF38023868
:1017C00080B2012D16D02289991B920A92020A43F7
:1017D00022816189181A890A89020143618120885E
:1017E000FF21013188432080FFF796FF0098208079
:1017F0006780F8BD71002289591A920A92020A4341
:1018000022814000E5E73E490120C8813F48006849
:10181000002800D00047704710B500F03CF8384968
:101820004A88D205520F062A01D9062102E04988CA
:10183000C905490F0622511AC84010BD10B5FFF75F
:1018400065FF2F4801888907C90FFBD10121C1819C
:10185000008A2C4A2E491288801A7D22D2005043D9
:10186000002801DD4A1002E0002801DA294A801828
:101870005DF7DEFB8011193040B210BD002809DB96
:10188000C106C90E0120884023490860BFF34F8F6D
:10189000BFF36F8F7047F8B50546194841880907AF
:1018A00005D5FFF724FB0646FFF725FB0FE0008870
:1018B0008009C007C00F05D0FFF706FB0646FFF7FB
:1018C00007FB04E0FFF708FB0646FFF709FB0446A9
:1018D0002804401B114D71190E465DF793FB074616
:1018E0002004001B31465DF7A3FB391A68008142D2
:1018F00001D90020F8BD28468142FBD888B2F8BD46
:10190000001500507256FC0740760000808CFC07E2
:10191000AA0500002BFDFFFF80E100E0FFFF0000B3
:10192000544930B4884201D0012100E00021524ADC
:101930004901891808E0838ADB07DB0F12D003888E
:10194000541C8D68CC81AB54CA898B899A42F2D3DE
:1019500082885208520082808A69002A02D0C8898F
:1019600030BC104730BC704710B5444800F001F857
:1019700010BDF8B53F4D404E044620890007000FCA
:10198000062826D009DC012840D002281DD00428D2
:10199000F3D12046FFF7C4FFEFE7072828D00C2833
:1019A000EBD1AC4201D0012000E0002040018719BA
:1019B0002046FFF7B5FFA18849084900A180B96911
:1019C0000029DAD0F8898847D7E7204600F01FF8C9
:1019D000D3E72046AC4201D0012100E000214901BB
:1019E00089190A69002AC8D0818A9E2319400BE010
:1019F0002046AC4201D0012100E0002149018919B3
:101A00000A69002AB9D001219047B6E7F8BD194903
:101A100030B4884201D0012100E00021164A49017A
:101A200089180EE003891B069B0F032B1BD0838AAA
:101A30009B06DB0F002B95D0531C0C68CB80A25C5F
:101A40000280CA888B889A42ECD3828802239A4308
:101A50008280828880239A4382804A69002A81D0CA
:101A6000888830BC10477C231B5A9B07DB0FE1E7BB
:101A700078E7000000100050848CFC070011005033
:101A800010B50A4880890A49C96A002901D08847E7
:101A900010BD042000F001F810BD002805DBC106D0
:101AA000C90E012088400349086070472013005088
:101AB0007456FC0780E200E010B50446FFF792FA86
:101AC000A04202D22046FFF797FA55480188C9077D
:101AD00008D10188012211430180514860384189B1
:101AE0004907FCD510BD38B54E4C05462068410766
:101AF000490F684601700078854219D0484860381F
:101B00004089C0050CD5A81E03005DF749FB0504FC
:101B10000604040409000B2000E01320FFF7CCFFAB
:101B20002068C008C0002843206060684007FCD5DA
:101B300038BD3D48007870473B4900200870704729
:101B40003A49800009583748016139494161704775
:101B500010B5EFF31084012080F31088304860380E
:101B60004089C0050BD5304901200870FFF73AFACB
:101B7000304908702A480088C007C00F4870052007
:101B80000007018880221143018026480168C908A6
:101B9000C900016041684907FCD50320FFF7D0FF69
:101BA000002C03D0012080F3108810BD0020FAE73C
:101BB00070B5EFF31084012080F310880521090728
:101BC000088880221043088016480368DB08DB0081
:101BD000036043685B07FCD5174B0361144B4361FB
:101BE0000888904308800E4860384089C0050ED5AB
:101BF0000D4900200F4D08702878FFF7FDF968782F
:101C0000002804D106480188490849000180002CB9
:101C100003D0012080F3108870BD0020FAE7000097
:101C2000800000500000F407C48CFC07C451FC077E
:101C3000090404A47056FC070F009909F8B51B4865
:101C4000194D0068A8422ED0FF26C136012130462A
:101C50005AF7C2FD04461648016816480A0A017080
:101C600042700A0C8270090EC1700022A35CFF2131
:101C7000C0319F07891ABF0F615CC75D7940594029
:101C8000A154521CB242F1D30A481C222146001D25
:101C90005FF7C6F920465AF71AFE0648001D5FF79F
:101CA00053F902480560F8BD658734129CB8FC07FB
:101CB0006056FC07A456FC0704480168002903D0BD
:101CC0000348C069C0B2084770470000C88CFC07D1
:101CD00000410050F8B5164DAE68164C002020703B
:101CE000607030050127002806DA686938436861AA
:101CF0006068002800D08047F0040AD5700400D541
:101D000027706869022108436861A068002800D034
:101D10008047B0040AD5300400D567706869042193
:101D200008436861E068002800D08047F8BD0000E3
:101D300000400050CC8CFC0726494A8808239A436F
:101D40000378DB001A434A804A88407804239A4388
:101D5000800002434A8070470A4610B5014610468B
:101D60005DF750F91B492039401E088110BDF8B5B8
:101D7000184C0646203C278940687F1C7843642124
:101D80005DF740F90546B068642178435DF73AF99C
:101D900031780B005DF704FA070805090D111519D4
:101DA000080060812818E082F8BDA08128182083EF
:101DB000F8BDE08128186083F8BD20822818A08330
:101DC000F8BD60822818E083F8BDA0820149281878
:101DD0000880F8BD20340050F8B50125AD07AC6B84
:101DE0002046FEF7C9FC6449644F4A688618002003
:101DF0004860394630465DF705F9614948603A4622
:101E00005043301A00D0381A80B20860286B08217D
:101E10008843084328635B480460F8BD10B5FFF7AA
:101E2000B0F8052000074189890703D04189890856
:101E3000890041810189802211430181018A0422A4
:101E400091430182818A8907FCD500F0AFF8012017
:101E50008007016901694907FCD510BD10B54A4CDE
:101E600008202080FFF782F820894007FCD4FFF784
:101E700088F8464805210088090748804448454CB1
:101E80000088801E608007202080FFF76FF8208880
:101E90004007FCD4FFF7C2FF10BDF8B53E4801680B
:101EA000C90703D001680222114301600168490299
:101EB00004D50168012292051143016001272E4ECD
:101EC000BD072C69002C56D0200606D58020A861BD
:101ED0004BF7DDFC1E20FEF7E1FBA00703D5022037
:101EE000A86147F7D2FB20070AD50820A86102F0B5
:101EF00032FF002047F782FB0420307000F0F1FC35
:101F0000E00505D5FF200130A861012047F776FBE9
:101F1000A00504D501204002A8614BF721FD600611
:101F200003D54020A86147F764FBE00603D51020E5
:101F3000A86145F721FF60070FD50420A86112486A
:101F400001894908490001815BF7BEFA40F778FB37
:101F50001E20FEF7A3FB00203070E00706D0012012
:101F6000A8615BF7CDFA4BF792FC3770A006A8D5B5
:101F70002020A861A5E7F8BDDC8CFC0771020000F9
:101F800040000040E48CFC0700330050D48BFC0779
:101F9000D88BFC07001600500002004010B540F737
:101FA00094F9644880686449086010BD10B540F732
:101FB000B8F961485F490068886010BDF8B500262F
:101FC00000F0B4F800270090FEF71DFB01465B4CC3
:101FD0000020002902D12179022900D1009058491E
:101FE0000989C9070DD15AF7D4FA002809D0E07839
:101FF0000126002805D005200007808AC00701D0EF
:10200000042691E0208800287ED1FEF7FCFA002803
:1020100006D14C48806A002802D000F087F8009072
:10202000FEF7B6FBA17868465BF7ABF800287BD0DB
:102030000125AD072869400676D440488178684676
:102040004BF77CFD00286FD00120FEF7A5FF00991B
:10205000002906D0286AFF383938DA2801D8491E05
:10206000009139480288394801685018384A106090
:10207000EA6B920A92020A43EA63E96B354A11401D
:10208000354A1468A2021143E963E96BC902C90A1F
:1020900040050143E963314A00980426002190423B
:1020A00000D3FEE72E4B0CCB5CF7D6FF0903000DE7
:1020B0000843611C401E884200D120461F4909790F
:1020C000002900D0012147F74FFC2648C06A80470D
:1020D000FEF7C2FB002802D0FEF748FF0127154C8F
:1020E000286B0004C00FFBD02068C005FCD5206819
:1020F0008025A8432060002F01D0FEF742FF104842
:102100004189462906D200E00EE04622164B511ABC
:1021100019604281FFF742FF20680006FCD50520C8
:1021200000070189A94301813046F8BD0F480068C6
:10213000806A704700020040E88CFC0754BAFC0734
:102140000033005074BEFC07D88BFC076856FC07B0
:10215000B856FC07FF03E0FF6456FC0740420F003F
:10216000F88BFC0758BFFC07E08CFC0758B9FC074C
:10217000002070477047704710B5282801D22820EA
:1021800002E0E62800D9E620FF21F33148437D2113
:10219000C9005CF737FF8130C0B210BD704770478F
:1021A00010B5022902D0012900D0FEE7002802D094
:1021B000FF2802D0FEE7022902D000F09BFB10BDF1
:1021C0000C2010BD01218907086B0722104308630A
:1021D0008C480168021391430160704710B50220DA
:1021E000FEF7DAFE874801680203914301608648E2
:1021F00000214163416B1F2212049143421389184D
:10220000416301060868F0229043E030086010BD89
:1022100010B58AB07D4941627D4981627D49416145
:10222000002430210C547C49C1627C4901607C4906
:1022300001627C4941607C49C16100F03EFB72480B
:10224000416B1F22120491434213891841636D4868
:102250000168C2129143016068460455641CE4B2EF
:10226000282CFAD3014671482822006840305CF7D8
:1022700043FF092000F03BFB00F03FFB002802D0A9
:10228000012000F034FB00F019FBFEF7CBFDFEF758
:10229000F8FD00F0D5F800F058F8FFF79FFF00F0C8
:1022A0000BFB00F083F800F01CFB0AB010BD10B56A
:1022B0005548416B1F221204914342138918416310
:1022C00000060168C908C9000160052000070189EE
:1022D00008221143018100F010FB002802D00120E8
:1022E00000F005FB00F0EAFAFEF79CFDFEF7C9FDE1
:1022F00000F0A6F800F029F8FFF770FF00F035F8BD
:1023000000F0EFFA10BD10B5044670224849494864
:102310005CF7F2FE47484830011B464810380183FD
:1023200044495C31091B418310BD10B500F0C6FA69
:10233000FEF7A7FD00F084F800F007F800F0BCFA03
:1023400000F023F800F0CDFA10BD2F4B10B540334C
:102350001868394C0102090EC2B20A3109040A3266
:10236000204011430143196010BD344A118B31489C
:10237000103083691B0C1B040B438361518BC269B2
:10238000120C12040A43C26170472C4A203A118B86
:1023900028481030C3681B0C1B040B43C360518BCF
:1023A0000269120C12040A430261704710B5FFF76C
:1023B000ECFFFFF7DAFF21482038018A1D48103072
:1023C0008268120C12040A4382601C4A40329188CF
:1023D000036A1B0C1B040B430362D188426A120C74
:1023E00012040A43426215494A88836A1B0C1B0483
:1023F000134383628988C26A120C12040A43C262C0
:1024000010BD000000020040400000407121FC07A8
:102410007521FC07A121FC07C521FC077721FC07DA
:102420009D21FC079F21FC077921FC074CB9FC0783
:10243000E051FC0770A0FC0700FF00FF20300040C7
:10244000F0B5FE48406B7F21090288430B21090249
:102450004018FA494863086AF94980B24018F749B8
:102460000862886BF749012208405203F34980183B
:102470008863F2484030016903231B02194301615C
:10248000818B102421438183EC48203081880124F2
:1024900021438180ED49EC480860ED4C20883F21C4
:1024A000090188432F21090140182080E84820387D
:1024B0008169E84D490D490549198161C169E64DB8
:1024C000294009256D024919C1614168E34D294040
:1024D000E34D491941608168E24D2940E24D4919B7
:1024E0008160C168E14D2940E14D4919C160016930
:1024F000E04D2940E04D49190161E049C5140978D2
:1025000009064919C1256D012943DD4D29600525BD
:10251000DC49AD020D816D1D8D81DA4920310D89B7
:102520002D0A2D0255350D818D25AD000D82D64D1C
:102530008D82D64D0D83D44D0E3D8D83D349D14D23
:10254000C91D40352980D249A181C16BD14C2140A0
:10255000D14C0919C163FF20D04C6C302080CF488A
:102560002030068B1F2149010B258E43AD017619C2
:102570000683CA484030868809278E43BF01F61972
:102580008680068915278E437F01F6190681868984
:102590008E4371198181FF208D30A080BF4880302B
:1025A0000189E024A14319430181818B4909490133
:1025B00019318183B2482030818B5B01994389189E
:1025C0008183AF4880300168C908C900C91C016017
:1025D000AB49B34840314862F0BDA94908B5002075
:1025E0008031C8620090401C0090FF28FBDDAD48A0
:1025F0000078AA49C006820D4031C8681F235B01DC
:1026000098431043C86008BDA7488C490068403112
:1026100008608A488169890989011C318161816961
:10262000C21391438161016B3F221206914307223D
:10263000920689180163016B3F22920191430F2298
:10264000D20189180163016B890989011E31016377
:1026500070477A48C16949084900C16170478F488D
:1026600008B54030C1688F4A8905C90E1170C1682C
:102670001F2252019143C160814901208871804825
:102680008030C16A03221143C16200200090401CC7
:102690000090FF28FBDD08BD08B57949022088714C
:1026A00000200090401C00900B28FBDB08BD634815
:1026B00041210177C1690322520291430215891811
:1026C000C16170475D4840300168774A1160002160
:1026D000C94301605948816989098901816181691A
:1026E000C21391438161C1690322520291430315D0
:1026F000C918C161C169702399434031C161016B3F
:102700003F231B0699430B235B06C9180163016B2A
:102710003F239B01994389180163016B8909890152
:10272000183101637047F8B5554803274771434C8A
:102730006068C009C00114306060FFF7C3FF432028
:102740002077FFF7A9FFFFF78AFF002526150095E0
:102750000098401C0090B042FADB494903204871C0
:10276000364880308068C705FF0DFFF736FF0095BB
:102770000098401C00901028FADBA0694002400A33
:10278000F9050843A061A06948490840B901084318
:10279000A061FFF78CFFFFF77FFFFFF760FF009559
:1027A0000098401C0090B042FADB35490320487184
:1027B000224880308068C705FF0DFFF70EFF0095A7
:1027C0000098401C00901028FADBA0694002400AE3
:1027D000F9050843A061A06934490840B9010843DC
:1027E000A061FFF764FFFFF757FFFFF738FF009581
:1027F0000098401C0090B042FADB21490320487148
:102800000E4880308068C605A069F60D4002400A77
:10281000F1050843A061A06924490840B1010843BB
:10282000A061FFF716FFFFF7EFFEFFF7D6FE00955A
:102830000098401C00901028FADB39E0003000407E
:1028400000008888FF00FEFF59055C0780000040FB
:102850002020004009581A00FEE1FFFFE0E00000E0
:102860000809294900000303696A686C031FFFFF18
:1028700070600000E0E0E0E00B0A0A08EC8CFC0766
:102880000010004020130040340A000051080000EE
:10289000070F00002F64E0FE101A0601001200402E
:1028A000500150014856FC07BC56FC073F80FFFF13
:1028B000134846810120F8BD35E7704708B5114837
:1028C0000821017100210091009A521C0092102AE7
:1028D000FADB0091491C00911029FBDB03214171B7
:1028E00008BD084802218171002181807047064996
:1028F0000870704704480078704703484078704774
:10290000C056FC0700100040EC8CFC07F8B5002511
:10291000244CFF272E46002813D12846103026616C
:10292000A082E7826660A660E681A681C0B22146E9
:1029300026605AF75EFA6D1CEDB21834032DECD305
:10294000F8BDE08A5EF7DAFC002802D04168204634
:102950008847E7826660A660E681207D5AF7A3FA81
:102960006D1CEDB21834032DEBD3F8BDF1B50D4D50
:102970000D4F00242E46E88AFD2803D1182060431D
:1029800080194760E88A5EF7B9FC002803D08268A6
:10299000284600999047641CE4B21835032CEAD30A
:1029A000F8BD0000F48CFC07D452FC07FFB585B0DD
:1029B0000C46FD205EF71CFC03900027684607705C
:1029C00008986946060A20885FF73EFD054660883C
:1029D000002800D0FEE7002D6CD1FD2000F092FF12
:1029E0000146426868460078142386464343181D12
:1029F000105C022822D1D058354A008890421DD15F
:102A00000197029720885FF7BAFC00280ED001AB2F
:102A1000002204A94EF7A8FA049821468005C00FA9
:102A20005FF798FC05062D0E01D043E0FEE76846EF
:102A30000178E28830465FF768FE20E000290AD07E
:102A400088698446002806D0A2886188A31D704644
:102A50006546A847054601970297208801A94DF7CA
:102A6000FEFF002D26D101980089C00B07D1628896
:102A7000A1882088A31D4EF75CF8051E1AD13146A7
:102A800003985EF7D3FB0146A088079A801D83B2A6
:102A9000104859F7AFFF0746A288A11D801D5CF7BB
:102AA0002BFB684600787880A088B8803E70384656
:102AB00059F7BBFF04230848079A089959F79AFF6A
:102AC00021880180857059F7B0FF002009B0F0BD62
:102AD000022900000AFD0000160C000010B500F0ED
:102AE000E2F910BD10B500F057FE00F0A7FD60F749
:102AF000FFFD0120FDF766FD10BD10B560F7E0FC9D
:102B0000002801D001F074F910BD10B501F070F982
:102B100010BD10B53B490A780270401C491C5CF797
:102B2000EBFA10BD3749498C0180704708210180BC
:102B300010214180002181807D21C180704770B5C6
:102B40000C46017800252F4B002904D0012909D01B
:102B50004820207070BD8278011D1A70581C5CF7E7
:102B6000CBFA01E040885884257070BD01200870C0
:102B7000002048808880704770B5044640798009FD
:102B800011D13FF7BCFE014620700A0A62700A0CA0
:102B9000A270090EE170251D3FF7B1FE2870000AF2
:102BA000C0210843607170BD10B500F008FC10BD75
:102BB0001FB54A78002A0AD0134B012A12D0022AE4
:102BC00010D0032A0DD101231022891C07E00FA485
:102BD0001ECC03946C460EC401231022694600F0FB
:102BE0000DFC1FBD009301230422F7E710B5044636
:102BF000497800F093FA204600F03FFC204600F0B0
:102C000030FC10BD608DFC0740E2010000010203B2
:102C10000405060708090A0B0C0D0E0F0021AD4A2A
:102C200005E0834201D101207047491CC9B20C2341
:102C30004B43D35CFF2BF4D10020704770B5A549FE
:102C4000A54C0E460C36A54D0DE052185268002AD0
:102C500007D0C2B20C235A4351184968401C607017
:102C60002DE0401C607060780C2242438B5CFF2B8F
:102C7000EBD10AE089194968002903D0FFF7CEFF9C
:102C8000002809D02078401C207021780C20414376
:102C9000705CFF28EED117E020780C2141438919A0
:102CA0004968401C20700AE04919C968002909D008
:102CB000C1B21C2251434919C968401CA070884701
:102CC000002070BD401CA070A0781C2141436A5CAC
:102CD000FF2AE9D10020A07060702070012070BD33
:102CE000F8B5054600247B4E0AE08019816800296A
:102CF00004D0641CE4B22846884701E0641CE4B2B6
:102D000020460C214843315CFF29EED1714E00244E
:102D10000C3609E08F19B968002903D0FFF77EFF50
:102D2000002809D0641CE4B20C216143705CFF28C8
:102D3000F0D10024694E10E0641CB968E4B2284662
:102D40008847F1E780190169002904D0641CE4B2C6
:102D50002846884701E0641CE4B220461C21484311
:102D6000315CFF29EED1F8BDF8B55B4DE86800286D
:102D700042D1522304220921594859F73BFE044607
:102D8000E8600D2020700021192061704001A080B2
:102D9000E08007202072A172012060721B20E07287
:102DA000024620460C304FA107465CF7A5F9E868BB
:102DB0000B212030C17220460A462C3050A1064615
:102DC0005CF79AF9E968C87A2031C97A0A30C91DD6
:102DD0001F2806D8E07A0521C21920464BA30B30E4
:102DE00008E01F2908D82B20005D48A3821920463F
:102DF00005212B3060F78EFBE868F8BD70B5364EC4
:102E0000B068002829D136482C230422092109382A
:102E100059F7F0FD032101700A21B0604170F721DC
:102E20000184002585760446458010210A305CF730
:102E30007CF92021E176A583E58336486584C08F3F
:102E4000FB21FB2800D908463249E0844031324852
:102E50000988814200D808462085B06870BD3EB51B
:102E600000251C49009501950C22403168460295C9
:102E70005CF742F918480C22183069465CF73CF9B7
:102E8000154C05222434227020A1601C5CF734F913
:102E9000104965843031042059F7ABFF002104202C
:102EA00059F7D9FF3EBD10B5FFF75EFF59F7BDFDDD
:102EB00009490020C8600221042059F7CCFF10BD49
:102EC00010B5FFF79BFF59F7B0FD0349002088605C
:102ED00010BD0000EC52FC073C8DFC07E454FC07DD
:102EE0000D0D00000903031802180418F5FE102444
:102EF000162F2F7777772E69616E612E6F726700BC
:102F00000AFF00D2444C472D424C4500584D30300A
:102F100031000000F0BBFC074808000010B5104667
:102F200059F7AEFF002800D0FEE701230422092153
:102F3000754859F75FFD0121017059F776FD0020B2
:102F400010BD10B50C780F2C17D00CDC0C2C14D045
:102F500004DC012C13D0032C0DD117E00D2C1CD058
:102F60000E2C08D109E0112C07D0122C05D0132CFF
:102F700003D0172C01D000F0AFFF002010BD48781F
:102F8000002800D0FEE7FFF79BFFF6E7487800280F
:102F900000D0FEE7FFF7B1FDEFE7487800F036FF1D
:102FA000EBE7F8B51C4610460E4659F769FF0228B4
:102FB00000D0FEE7240A0C202746474353483D181B
:102FC000AC70FF2C1AD00121E9700321042059F7BD
:102FD00042FF4E483188C153707A28713146681DCE
:102FE00006220A315CF788F87A2049496043401884
:102FF0006030017E0122204660F776FA3146204695
:1030000000F0D4FE0020F8BD70B50D784C78092D85
:1030100004D0002C00D0FEE700F05EFF002070BD61
:1030200070B51D4610460C4659F72AFF2A0A032898
:1030300000D0FEE70C2042433448FF211018817075
:103040000021C170204600F0C2FE002070BDF0B526
:10305000087800252F4C89B01F461646002804D05A
:10306000012817D0022827D129E06846FFF751FD33
:10307000684603783246394620460A3359F7BAFC87
:103080000446057068460278411C6280201D5CF78A
:1030900033F82BE069460D806846FFF743FD0A23AD
:1030A00032463946204659F7A5FC01210170694690
:1030B0000988418059F7B9FC002009B0F0BD0A2306
:1030C0003946204659F796FC04466846FFF72EFD20
:1030D0000220207068460088608068464088A08092
:1030E00068468088E0806846C08820812046E1E705
:1030F000FEB51C46089B0E26074D6F4668C7134653
:10310000224660F7F5F8FEBD020D0000548DFC0765
:103110009A8DFC070B0E00003853FC07F8B50E46DD
:103120007A2148430B4D074644192046082226774A
:103130001430114600F0E0FBA01C1022314600F0D4
:10314000DBFB3FF7DCFB6082E85D01210843E855CB
:10315000F8BD00009A8DFC0710B50A78180A130014
:103160005CF71EF808051A1A1A131818161A0C22FA
:10317000474C424312190123D3727A22454C002353
:103180004243A354FFF710FD04E0FFF711FD01E0F7
:10319000FFF72CFD002010BDFEE7FFB581B00498BD
:1031A0000C26000A009004983A4D040A23467A201F
:1031B00073430A784443364E601907469E19921E9F
:1031C000603713005BF7ECFF0604123E1921293E1D
:1031D00089783976C90706D0711D062271305BF7F0
:1031E0008BFF3079F8750020F07230E00020F0722B
:1031F0003876009860F7C4F929E017223A30891C24
:103200005BF77AFF285D042111E010226130891CF0
:103210005BF772FF285D102109E04A8A002A09D075
:103220001C221E30891C5BF767FF285D02210843C2
:1032300028550CE01C22801C891C5BF75DFF285D73
:103240000121F4E7049B039A019800F045FE002059
:1032500005B0F0BD00207047180A7A2250430D4A8D
:103260000978801860300176002070470020704790
:103270000020704700207047FEB51C46089B0726BB
:10328000054D6F4668C71346224660F731F8FEBD0C
:10329000548DFC079A8DFC07A853FC0705200007F6
:1032A0000089000608D501208007006B000403D4C4
:1032B00003480078C00701D0002070470120704704
:1032C00054BAFC072E4A00218B00D358002B04D09F
:1032D000491C0529F8DB2B4870478B00D0502A4841
:1032E00008180004000CF6D0704770B50C4605466F
:1032F00000F03BF8002804DB214980000C502846F0
:1033000070BD204870BD10B51D4C0146241F20889B
:10331000002802D0FFF7E9FF10BD0846FFF7D2FFF3
:10332000208010BD164810B5001F0088002803D06B
:103330000022042159F78FFB10BD70B51249049C7F
:1033400049424118052901D3012070BD00F00DF854
:103350000025002806DB0A4A81005058002801D0C9
:10336000555080472570002070BD074949424018DC
:10337000052801D240B270470020C04370470000CA
:10338000188EFC07FFFF00000E040000F8B5484D42
:1033900084002959002910D101021E230422454826
:1033A0000A3159F727FB01260670074628510722E4
:1033B0004149801C5BF7A0FE7E702859F8BD10B50E
:1033C0000446FFF7E3FF59F730FB0020384AA1001D
:1033D000505010BD70B5364D84002D1D295900295F
:1033E00001D0084670BD01021E23042231480A3173
:1033F00059F700FB04210170285170BDFFB581B061
:103400001F460446FFF7E6FF294D0646A4002D1D82
:1034100028591021801C5BF788FE2859039A801CCC
:1034200002995BF769FE7770304659F7FEFA002083
:10343000285105B0F0BD70B51D4D84000C352959DB
:10344000002901D0084670BD01021E23042219483C
:103450000A3159F7CFFA0721017001214170285133
:1034600070BD10B50446FFF7E6FF59F7DEFA104AC3
:103470000020A1000C32505010BD70B50546FFF77A
:10348000DAFF04467A2045430C4808222D18287F8D
:103490002077688A608229462046143114305BF711
:1034A0002BFEA91C1022A01C5BF726FE70BD00009D
:1034B0002C8EFC07140E0000AC54FC079A8DFC0700
:1034C0007047704770B50D460446FFF7E7FE0028C9
:1034D00006D054482A460421201859F7CAFD70BD69
:1034E000FDF794F84F48042208231146801E59F72F
:1034F00081FA4560047059F798FA70BDF8B50D4629
:10350000494900244318069E002B42D0474F484AA1
:103510004849012B08D0022B27D0434BDB1EC31890
:103520000A2B45D30120F8BD2B78581E09281BD83B
:103530009B001B1FCB58BB4205D180000C503D495E
:1035400028310C504CE080000858904248D10422A9
:1035500008231146334859F74DFA297801706968F4
:10356000416059F762FA3BE0FEE72878431E092BD9
:103570000ED88000001F0858904231D12D4A980083
:10358000283212580A5028786968FFF79BFF27E015
:10359000FEE76A68002A03D02748824201D9FEE785
:1035A000FEE729781F480818042159F762FD17E043
:1035B0001D4B9B1EC018C0B2431E092B10D885009E
:1035C0006B18803BD96F00290AD0914208D0B942CC
:1035D00006D0184ADC672832AA18803AD467884790
:1035E00034700020F8BD10B50A46010003D012481F
:1035F000814201D9FEE7FEE70E4B002084001C59F2
:10360000002C04D0401C0A28F8DB002010BD8400E8
:103610001A51401C0406240EF7D02046FFF752FF33
:10362000204610BD03040000FFFBFFFFC134FC0770
:10363000C334FC07448EFC07FCFF3F00704710B505
:103640000A23042209210B4859F7D4F904461B2008
:103650002070142060F720F860701420608004202F
:10366000A0800020E080FF2174312181204659F79D
:10367000DCF910BD1B0D0000F8B50E4609781846A0
:103680000B005BF78DFD090609120915150C180FC3
:103690002F000B241AA510E007241CA50DE0082418
:1036A0001CA50AE007241EA507E00A241EA504E0C5
:1036B0000D2420A501E0062422A50146A31C2348D1
:1036C00059F798F90746307838707C70002C04D090
:1036D00022462946B81C5BF70FFD384659F7A5F975
:1036E0000020F8BDFEE7FEB51C46089B0126184DDC
:1036F0006F4668C7134622465FF7FAFDFEBD00001D
:103700004469616C6F672053656D690044413134D1
:1037100035333100123456FFFE9ABCDE0000000043
:1037200001D2008005000100312E302E302E302DC8
:103730004C450000765F362E302E31362E31313436
:1037400034000000FFEEDDCCBBAA00000314000033
:10375000B454FC0770B51C2304220921414859F7D1
:1037600049F904461B20207024205FF795FF607004
:10377000242060800423A3800021E18001222272A2
:103780006272394DA581E18123746174A274A172C2
:10379000204659F74AF970BD10B50020FDF7BCFE70
:1037A0003249087010BD10B530490A2288800421C2
:1037B0002F485FF745FF10BD70B5044624203FF742
:1037C00002F80146042309201A46800259F712F92B
:1037D00004700024254D447029788170C47059F715
:1037E00024F9EC70FF202C70F530FFF7DCFF70BD82
:1037F00010B51E480121417081701D48C822042166
:10380000401C5FF71DFF10BD10B5044624203EF795
:10381000DAFF014602230422164859F7EBF800218B
:103820000170447059F701F910BD70B50020FDF723
:1038300073FE0E4D04462878844202D02046FFF7DE
:10384000E3FF2C70E878002803D00A2C01D2FFF7A0
:10385000CFFF70BD10B50421054859F754FC10BDC9
:10386000704700001B0D0000AD270000948EFC0780
:10387000130400000224000000207047002070475D
:103880000020704710B51446FFF7CFFF15482146BA
:10389000028815485FF7D4FE002010BD10B513480C
:1038A0001146007800280ED0114B0F481A78401CA2
:1038B000002A03D000221A70142202E001221A709A
:1038C00005225FF7BDFE002010BDFEB51C46089B1B
:1038D0000526084D6F4668C7134622465FF708FD68
:1038E000FEBD0000988EFC0713040000978EFC07B5
:1038F000968EFC07BC54FC0710B58A4201D35FF7D3
:103900002FFD10BD0021154A06E0834203D11C2083
:10391000414388187047491C1C234B43D35CFF2B41
:10392000F3D10020704710B51823042209210C4858
:1039300059F760F804461B202070FD205FF7ACFEAD
:103940006070FD2060800420A0800021E180E160A3
:103950002161A182204659F768F810BDE454FC07A4
:103960001B0D00003EB51D46069B00240093134628
:10397000019402942A465FF7BBFC3EBDF8B50024D3
:10398000FF22234601320B2120460094FDF792FBD3
:1039900000230326012536023246194618460095B3
:1039A000FDF788FB00233246012118460095FDF7FC
:1039B00081FB00233246042118460095FDF77AFB6F
:1039C00000233246032118460095FDF773FB1723A9
:1039D0003246052100200094FDF76CFB1823324687
:1039E000092100200094FDF765FB002332460821E1
:1039F00018460094FDF75EFB00231A46072118467F
:103A00000094FDF757FB00220F2306211046009477
:103A1000FDF750FBF8BD70B50A4C012525801B2031
:103A2000FDF7FCFA01F0D4F9FFF7A8FF00F007F961
:103A300000F089F9FFF714FFA089A8432843A0816B
:103A400070BD00000003005010B5042059F718FAAB
:103A500010BD10B500F052FA10BD1CB56421002055
:103A6000019101230C2200900B21FDF740FBFE4940
:103A70000C20FDF7BFFB1CBD10B5FC4C0220607094
:103A800000F046FB00F0CDFB042059F7F9F90328BC
:103A90000ED05FF793FDF6488078002807D1FCF739
:103AA000AAFD00F0CCF801202070FCF78BFD10BDC2
:103AB000F04880785FF764FD10BDF8B5EB4802224E
:103AC000EDA108305BF73CFBE94DE84F00285AD1E7
:103AD00038460622E9A108305BF732FB3C46E94E46
:103AE000083400280ED00622E7A120465BF728FB09
:103AF000002823D00622E6A120465BF721FB002800
:103B00002CD03BE03078012802D002280BD033E0E3
:103B1000E0790A213038C0B24843217A3039C9B23D
:103B20004018308128E0E0790A213038C0B248439B
:103B3000217A3039C9B24018B0801DE0E0793128CF
:103B400002D0322804D017E03078022803D113E0E5
:103B50003078012810D000F03EFB0DE0E0793128EC
:103B600004D0322805D0332806D116E04B2040017E
:103B700001E0E1200001786000206860BB48092175
:103B800008305BF7D2FA6868401C68607968884240
:103B900008D3A878002803D004E04B208001EAE78E
:103BA000FFF76AFF7878022805D0BB493220FFF77B
:103BB0001AFDBA490870F8BD10B5AD49002048603B
:103BC00000F098FA00F0D1FAB3493220FFF70BFD6C
:103BD000B2490870FEF782FF10BD70B500F08EF993
:103BE000A34CA078002827D1A04D6878022802D0E5
:103BF000012818D020E00B210020FDF76EFA0026E6
:103C000000280ED160781E280BD86978002908D0CA
:103C1000401CC0B260701E280ED3FFF7CDFF6E703F
:103C20000AE0667008E00B210020FDF756FA002834
:103C300002D16078401C6070FFF70FFF70BD10B5B7
:103C40009748FFF760FB8848FDF7CEFB9548FDF7E6
:103C5000C8FB0122D00264230146FDF7A0FB6423C8
:103C6000012200218020FDF778FB10BD10B5FCF784
:103C7000C2FCFFF7E4FF7D4901200870FCF7A2FCBD
:103C800010BDF8B50B210020FDF727FA774E00276D
:103C9000774D7C4C002802D07078002809D00B2189
:103CA0000020FDF71AFA002817D07078012804D0F8
:103CB00013E0012070706F7012E068781E2802D344
:103CC000FFF7DAFE08E0801E1C2805D26078002885
:103CD00001D100F080FA6F606F70707802282CD0EC
:103CE00071480078002828D02078002825D00128A5
:103CF00002D0022821D10FE02189E088814201D938
:103D0000401C02E0814201D2401EE08080B281422C
:103D100013D0C1B201200EE0A1886088814201D990
:103D2000401C02E0814201D2401E608080B281428C
:103D300003D0C1B2022000F037FA5C490520FFF73A
:103D400052FC2870F8BD1CB54948642182780120D6
:103D5000002A019100900AD001230D2207210020A2
:103D6000FDF7C5F952490D20FDF744FA1CBD0023AB
:103D7000F3E770B53E484F4C817800290AD0002106
:103D800081700220207000F0C3F9FFF76FFFFFF78A
:103D9000DAFF70BD0125857000F0B0F83348407837
:103DA000012801D1FFF768FE2570F0E70C21314AA8
:103DB00010B5414389188978FF2905D0FEF790FF97
:103DC000012000F07EF910BDFEF788FE10BD10B591
:103DD00027488078002808D124484078022801D05C
:103DE000FEF77CFE022000F06CF9FFF733FD10BDFA
:103DF00010B500F053F900F0AFF92C491420FFF78B
:103E0000F2FB1B490870FCF7F6FB10BD10B5442807
:103E10000CD1FCF7F0FB05200007018A02221143B8
:103E20000182818A4907FCD5FFF717FE10BD08B54E
:103E300000206A4610708A886846891D5BF75CF925
:103E400008BD10B509488A880830891D5BF754F908
:103E5000FD203EF7B8FC014615230422164858F70A
:103E6000C9FD0446022029E0DB3BFC074C56FC0759
:103E7000EC56FC07548DFC074154000041542B4C78
:103E8000525000001057FC0741542B4C524D00007B
:103E900041542B54524C0000BB3AFC079A8EFC074D
:103EA000493AFC07533AFC070C57FC07833CFC07D4
:103EB000733DFC07F456FC0706FD000060800920F6
:103EC000A0800120607009221549A01D5BF714F93C
:103ED000204658F7AAFD10BD30B4124C04190BD07F
:103EE000114DEC4208D14C88022C03D0052C03D193
:103EF00030BCA6E730BC9AE730BC704710B5FCF781
:103F000082FB00280BD00649002008390870FCF716
:103F100059FBFCF77BFBFCF772FBFFF703FA10BDC4
:103F20005456FC07EFF1FFFF0711FFFF10B5030028
:103F30005BF736F9051F040912041E00002108462C
:103F4000FDF7AAF819E000210846FDF7A5F80121C0
:103F50000020FDF7A1F814E000210846FDF79CF8C9
:103F600001210020FDF798F804210020FDF794F8C6
:103F700010BD00210846FDF796F801210020FDF74D
:103F800092F804210020FDF78EF810BD70B50020D6
:103F9000FDF7C2FA6B4C60702179002900D12071C5
:103FA000694909780029217902D0814202D802E0CA
:103FB000814200D261702078002866D0012200255D
:103FC000012804D002282DD003285ED146E0A07835
:103FD000401CC0B2A070617863291BD2022854D360
:103FE000584BA5705B1D1E78981D811D002E0DD1AC
:103FF0000678002E03D01D7005700A701FE00E7841
:10400000002E03D01A7005700D7012E01D70027042
:104010000D701AE00020FFF789FF03210020FDF753
:104020003BF832E04948007801282ED160786328B7
:1040300001D303200AE001464B39182901D202209E
:1040400004E001461A39312903D20120FFF76EFF3F
:104050001BE0192819D80320207016E0A078401C16
:10406000C0B2A07002280AD3A570E078002802D060
:10407000E570042001E0E2700020FFF757FF607850
:10408000192802D902202070A5706078207130496B
:104090003220FFF7A8FA2F49087070BD294910B5E2
:1040A0000020491D8870C870891D8870891D88701E
:1040B0000420C87026493220FFF795FA2549087078
:1040C00010BD08B5002808D001280ED0022803D161
:1040D00008210020FCF7E0FF08BD0020034602464F
:1040E00008210090FCF7E6FF08BD08210020FCF73E
:1040F000DAFF08BD10B50220FFF7E3FF11490220E7
:10410000087010BD10B503210020FCF7CCFF10BDD6
:1041100010B5FFF7F7FF0B49002008700146FCF7C8
:10412000C2FF01210020FCF7BEFF04210020FCF7A4
:10413000BAFF03210020FCF7B6FF0220FFF7C1FF02
:1041400010BD0000F456FC07EE56FC074D56FC0768
:104150008D3FFC079B8EFC073B48002141700222EB
:104160000270642282800181704710B5052000072B
:1041700081880822114381808188344A8908127815
:104180008900114381803048C01EFDF7D5FD3049BC
:104190003048FDF7E1FD3048428801210A43428062
:1041A0002948001F017010BD10B5274A02240C32A7
:1041B000022802D0012803D008E00120107000E09E
:1041C0001470214851600C30FDF7D1FD2248418820
:1041D000A143418010BD10B51B4C0021207801285F
:1041E00012D002280FD1A0882081A1806088E080B1
:1041F0006180012020700220FFF7D6FF207AC1B233
:104200002078FFF7D1FF10BD2089A0802181E088B0
:104210006080E180022020700120FFF7C5FF207937
:10422000EDE710B5002408482146C480448000789A
:10423000FFF7BAFF08484188490849004180024811
:10424000001F047010BD00001057FC075D56FC07EE
:1042500000127A00A0F7030020340050F8B507469A
:1042600001200023024600901946032045F7CAF8B2
:104270000446022180300170FF4DFE482A684388C1
:104280001146FF31F7310B8680884886FB48066A65
:104290000123DB069E431E430662FF320020FF32ED
:1042A000383250829082D0821D200882F44848849F
:1042B000F448C882F448088300204882384645F70D
:1042C000E1FB01462868FF30F730C28B920992016A
:1042D0000A43C283ED48416800208847002C02D081
:1042E000204644F778FC2046F8BDFFB58BB0064663
:1042F00016980027022821D00D9801881498814231
:1043000078D37188084640383F2802D8159851F76D
:1043100075FC0C98361D0088149A80190E995AF76E
:10432000EBFE0C980188149808180C9908800D98D9
:1043300001881498081A0D9908805CE100200E9DF0
:10434000079069782C78090221433180E978AC78AC
:104350000902214371808C46403904242D1D0246F8
:1043600003468E46402900D32878614604291FD091
:10437000052914D0062918D070463F283DD8159835
:1043800051F73CFC0006000E04D0C148008D000629
:10439000C00F30D002230120BE4A002712E0697806
:1043A00000290FD0BC4A17230CE0BC4A0F2309E0B8
:1043B000522802D0D22802D002E0142000E01520BA
:1043C000B74A1F23002A1AD0984218D280001058EA
:1043D0000490002813D00020089005907088403881
:1043E000402803D32878052430716D1C701D00907F
:1043F0000498B5E0FEE03027F0E03327EEE0708867
:10440000042872D10627E9E0522862D00CDC4B2840
:104410003FD004DC41286AD0422858D111E04C2812
:1044200020D0502853D140E0632830D004DC5728F6
:1044300018D061284BD19BE06C2864D0772846D1F6
:1044400009E00098297801700098641C401CA4B20F
:104450006D1C009081E00498401C0490017808983D
:1044600081427AD10098A41C401C41084900881C54
:10447000009068782A780002104308800599AD1CE6
:10448000A4B2002969D008900020059065E00120C1
:10449000FBE71022294600985AF72EFE00981034A8
:1044A0001030A4B21035009057E0204640301499E7
:1044B000039088420BD84022294600985AF71CFEE8
:1044C0000098403000900398403584B245E034278E
:1044D00043E00822294600985AF70EFE0098083457
:1044E0000830A4B20835009037E068E0FFE7062204
:1044F000294600985AF700FE0098A41D801DA4B21A
:10450000AD1D009029E01498001B80B20390308804
:10451000001B001D81B2012007900498401C0490EC
:104520000098401C400840000090049800785728EC
:104530001CD04228CBD100980170090A4170009824
:104540002946801C0090039A5AF7D6FD03980399D8
:10455000201884B20098401800900498401C0490E1
:10456000007800281ED0002F17D01BE04908E2E792
:104570001498001B81B200980391401C4008400031
:10458000009001200A460790294600985AF7B4FD8A
:104590000399601884B20098DDE70D990988A1425B
:1045A00000D331E70D980088A04208D30499097818
:1045B000002904D10799002903D1A04201D0342752
:1045C0000CE00D99001B08800C9801880098801B56
:1045D000001F08180C99002F08800CD07088042840
:1045E00009D0062807D04038402804D30E984079D7
:1045F000707100E0342738460FB0F0BDFFB581B0D0
:104600001F4616460C46104658F73AFC00257F28F0
:1046100002D02189062909D03B463246214601981D
:1046200051F77FFE0546284605B0F0BDC00601D50E
:104630000225F8E720780028F5D1300AA11D3EF7C1
:1046400008F8F0E7F1B598B018983EF700FA04467C
:10465000189805210079134A4006C00F0990684652
:104660000184618B08460A38904276D2E08A062897
:1046700073D319E030BCFC074CB9FC07C000004004
:1046800010800000294100007671000058BFFC072F
:1046900048BEFC073803F2074003F2079C03F20709
:1046A000D803F207770C00001922D201904254D8A7
:1046B000228BFF23F5339A424FD8521C9300D21815
:1046C0004243521C0A23521059438A4245DC217F3F
:1046D00000290CD1617F002909D1A17F002906D1D1
:1046E000E17F002903D12021095DC90635D0274685
:1046F00020377978C906C90E491F0C292DD2A18A05
:1047000081422AD8E17C002927D0421E082A01D9FB
:10471000082000E0401E81421FD8684642F758FA40
:1047200000281AD1FE4D0622286221460BA85AF70E
:10473000E3FCA8792E46803E00287DD06079800970
:1047400001280BD00BA8099948F711FD010003D0EF
:104750003820405C002870D09CE009E1F06A807A43
:10476000012808D0042806D00BA848F76DFD286260
:1047700000284ED054E0686A06220BA932305AF75E
:10478000DFFC002806D00BA848F75EFD2862002851
:1047900002D012E0686AF9E700210BA848F76AFD29
:1047A0002862F16A897A012905D18B071A684906BE
:1047B0008A430A431A60002811D0F16A286A062247
:1047C000253010315AF7BCFC002808D1286AF16A5C
:1047D0002030C07AC97B884201D1286A1EE0D148C6
:1047E000D1490088C96880B20622504308183EF7B4
:1047F00033F9014614A8062202305AF77DFC13AAA9
:1048000000213C203EF7F5FB0121B06D43F71CFE73
:10481000AAE011A90BA848F72DFD2862002839D07D
:1048200001460A9006220FA825315AF765FC0A991D
:1048300008AA2031C97A01E042E025E00FA848F734
:1048400079FB002812D0286A2030C07A002809D1CC
:104850006846B649008C47F7E0FA08AA0121B34838
:1048600048F768FB68460BA9008C0AE008AA0121FA
:1048700011A848F75FFB00280CD0296A6846008C15
:10488000323147F7E0FA05E00A18527D002A08D0D5
:1048900010286DDBF06A407A022806D0032804D085
:1048A0000EE0401C1028EFDBF4E76846008C05287A
:1048B00006D308AA0BA8099948F73CFB002857D053
:1048C00000226946204648F7DEFB002850D1F06AF6
:1048D000407A02280BD0032809D0002368460288BA
:1048E0000BA8099948F7F0FB002802D02FE001231C
:1048F000F4E7E18A68460181218B4181618B8181E6
:10490000787806224109684681757878C106C90E13
:104910006846417521460E305AF7EEFB189800792B
:104920004006C10F684601750388214602A8B26D92
:1049300043F730F90146B06502A83EF7A8FB002016
:10494000B065214668461C31008842F794F945F766
:1049500013FA734C2034207A002805D00021092056
:1049600058F7D1FB002020720021084658F773FA4F
:1049700019B0F0BDF8B56E4C064685000F4660597B
:104980004C21095C24290ED140691022791D2E305A
:104990005AF7B2FB615925204031087300221146B5
:1049A000304650F77EFA60594C21095C0C291FD122
:1049B00040691022791D2E305AF79EFB60595F2105
:1049C0004069095C09072DD401462E3110221E30A2
:1049D0005AF7B6FB00280CD060590921403001730A
:1049E000304650F77BFF0146002230464FF7D8FD96
:1049F000F8BD0421684601706A46052130464FF72C
:104A000079FF6846017860200143684601703046AE
:104A100050F764FF014668460278012330464FF79D
:104A2000D4FEF8BD304650F759FF012809D060592F
:104A300007214030017300221146304650F731FA09
:104A4000F8BD615900204969C0318871605904215D
:104A5000426930461E324FF74DFF6059416940317F
:104A6000897F002907D01A21403001730021304688
:104A700050F7A1FAF8BD1B2140300173304650F7C2
:104A8000EFFAF8BDF8B52A4C05468600A0594C222D
:104A9000125C192A11D140224D30491D5AF72CFBC6
:104AA000A059402223494D305AF74AFB002805D02F
:104AB00020492846203957F7AEFCF8BD0B2168463F
:104AC00001706A46052128464FF714FF68460178B1
:104AD0006020014368460170284650F7FFFE0146FA
:104AE00068460278012328464FF76FFEF8BDFFB5F0
:104AF00081B003980C46060A002558F7C1F9002832
:104B000027D0132825D0142823D00B48B700C0592C
:104B10002030407BC00637D5039858F7B1F90DE037
:104B200030BCFC0768B9FC0760BBFC0750F5F10717
:104B30003CBEFC07FCBDFC0778BBFC0715280CD06D
:104B4000A0793DF777FF304643F712F8032806D0E7
:104B500015E0A0793DF76EFF1FE002251DE0A84893
:104B6000C0592030407B400704D53D2130463EF7F8
:104B70005FFC04E03D22002130463EF768FC3D2109
:104B8000304642F73DF808E0204610389D49018143
:104B9000468120464AF726FD0125284644E5F8B51A
:104BA00010460D46140A58F76BF9010030D09448AE
:104BB000A200835801271E8BBF023E431E83132988
:104BC00026D0142924D0152911D080582D21095C14
:104BD0000123CA06002A0CDA0246A032967D002E76
:104BE00007D093753D21204642F70AF810E00220D5
:104BF000F8BD090703D50021A0308175F7E7A03083
:104C0000837520463FF794F9294620463FF7C8F9B7
:104C10000020F8BDFFB581B01546170A104658F7B9
:104C20002FF9002837D0132835D0142833D0290A7B
:104C30008C00734E152815D0FF202946033058F7F5
:104C400062FA30592D21095CC90603D5A030C07D18
:104C500000280DD03D026D1CA8B258F711F9192893
:104C60000BD00EE030590121A030C1750220DBE4E9
:104C70003D21384641F7C4FF0DE0A8B2012158F7A5
:104C8000EAF830590122018B5202914301833846E0
:104C900002993FF785F90020C6E4F0B5584987002E
:104CA000C959002680314A8C8B8C1B2A00D21B22CA
:104CB0008C8B944200D222468A849A4200D00126EC
:104CC0000B8CCD8C1B2B00D21B23CC8B9C4200D297
:104CD0002346CB84AB4200D001260B8ECD8D9C4663
:104CE000FF2349339D4201D21C4600E02C460D8D26
:104CF000A54200D325460D86654500D001264C8E81
:104D0000A4468C8D9C4200D21C464B8DA34200D2FF
:104D10001C464C86644500D00126EB080B3B9BB239
:104D20009A4200D213468B86522335495843364B5C
:104D3000CA591C688032D28C0419FF34D2B20134B3
:104D40002286C9591A6880318018FF30498E013097
:104D500041863046F0BD2D4852220068643081887B
:104D6000C37E5143284A12688918FF225F32525A83
:104D7000FF31120AD21A01310B8CD2B2DB0B09D0EF
:104D80000B8C5B045B0C0B84002A03D18088204AC7
:104D9000012111547047FFB51746140A81B0184A13
:104DA0000298A100515840780026194D002907D0DB
:104DB000295D002905D0002803D120463FF79CFD3E
:104DC0002E553A46049B0299019840F726FD2BE4A4
:104DD00010B518220F4910485AF78EF90D4B0F489D
:104DE0000C3B0ECB0EC00C480D49A03001600D49A4
:104DF000416009490C482039086010BD7047000027
:104E000078BBFC07060800004CB9FC0784BBFC0714
:104E10009C8EFC071056FC0720000840C000FC07D1
:104E20000459F007490C00BF07001000064C01258B
:104E3000064E05E0E36807CC2B430C3C9847103442
:104E4000B442F7D3FBF768F92856FC074856FC072D
:104E5000F8B5040C8BB2264682B25E430D0C1046A8
:104E6000370C5843360480190021794116466E43A9
:104E7000370C36048019794126466E438919F8BDEE
:104E800002E008C8121F08C1002AFAD17047704713
:104E9000002001E001C1121F002AFBD17047F4017C
:104EA0006C5AF80720F8D007064064329E4EFC0783
:104EB000F08BFC071122FC07AF22FC0793DEF00702
:104EC000F1DEF007F9DEF00749DFF00761DFF007F8
:104ED00077DFF00799DFF00719E3F007BDE5F0078A
:104EE000FDE3F0071DE4F0073DE4F0077BE4F00785
:104EF0008BE4F007F5F9F007B1F7F007CFF7F0070B
:104F0000EBF7F00705F8F00719F8F00797F8F00746
:104F1000AFF8F007DFCDF10767D0F107DBB9F00795
:104F2000CD0DF207B10EF207AD0EF207A90EF20792
:104F30008D21F0076905FC07D91DFC075D08FC07FA
:104F40008F07FC077907FC07B57EF007837DF00724
:104F50005D42FC07599EF107634CF1070D29FC07E0
:104F6000D110F2076D29FC07B111F2074112F207C7
:104F70007912F207000000006505FC076705FC07D1
:104F8000B9C6F007D592F107EB42FC075F9DF10728
:104F90005F9CF107FD45FC07EB72F107B922F107B1
:104FA0006B04F1072905FC072BA4F007F1D2F007E9
:104FB0005FBDF007D5BDF00785BEF0079B4CFC0731
:104FC000752EF0071581F007DF7FF0070937F0072E
:104FD000000000004305FC074B05FC072B05FC0700
:104FE000F3C3F10775C4F10703C5F1070723FC07F5
:104FF00000000000000000000000000000000000B1
:1050000000000000000000000000000000000000A0
:105010000000000000000000000000000000000090
:105020000000000000000000000000000000000080
:1050300005000000285DFC0700040000AC92FC079E
:10504000AC020000A08EFC07000400006495FC0781
:10505000700500002003000000A60E000400000000
:10506000D2000000320000003C00000001000000FF
:105070000100000002000000020000000400000027
:105080000300000006000000000000000200000015
:10509000020000000000000000000000030000000B
:1050A00003000000050000000500000006000000ED
:1050B0000A0000000A000000C8000000B80B000051
:1050C00002000000B80B0000B80B00001000000048
:1050D000D4010000CC010000700200006A00000052
:1050E0000400000001000000200000000A00000091
:1050F00001000000E20400008A020000DC0500005C
:10510000AF000000AC4EFC079451FC077C52FC073A
:105110007052FC078C54FC070000000001040000E2
:10512000000000003F00000000000000010000013E
:10513000EF4AFC0701001D019F4BFC0701001E0107
:10514000154CFC0701000002974DFC070000000011
:10515000000000002000800000C00000000084006B
:1051600000002822000000000000040000F7FFFFFC
:105170007F00000030F0FF0F00000000000400007E
:10518000000000000000000000000000000000001F
:1051900000000000A8B8FC07A0B8FC07B8B8FC07DE
:1051A000F8B8FC071914FC075114FC079B14FC0702
:1051B000EF14FC07010202000003000101060200D7
:1051C00000000001010099090300990907009909ED
:1051D0000F0099091F1099092F2099095F5199090A
:1051E000080004900000000000000000030005D04B
:1051F0008B0035F010005CF0000010B0000018B01B
:1052000000001AB0030051F0000038B000003AB0BE
:10521000000064B0000066B0000022B0000024B0BE
:10522000010005D0000000000A000080080304907F
:10523000000004F0030006D0000000000A00008017
:1052400008030490000004F0030006D000000000F2
:1052500014000000ED14F207240000006D1AF2079C
:10526000FD0000002126F207FF0000000000000002
:105270005052FC07F48CFC07030000003855FC0773
:105280003A55FC073C55FC070539FC07130C000098
:105290004B29F207150C0000AD29FC07170C000084
:1052A000572BF207000C00002328F20706FD000030
:1052B0005728F20703FD00003728F20708FD000019
:1052C000B328F2070EFD00000F29F20705FD0000CC
:1052D000992BF2078C52FC07090000000000200304
:1052E000200307010001020304050600FF0000007F
:1052F0000000000000000000240000005537FC07FB
:10530000B937FC07140000003F36FC07000000001E
:10531000FF0000000000000000000000000000008E
:10532000583FF207988DFC070400010000000000C0
:105330000000000000000000010D00001D2FFC0710
:10534000000D0000432FFC07000E00000930FC0791
:10535000010E0000A32FFC07030E00002130FC0704
:105360000A0E00004F30FC070C0E00008531F207DA
:105370001C0D0000C731F207100D00008530F20748
:105380000F0E0000F931F2072C0E00003932F2073F
:10539000120C00005332F207080E00006F32F207C1
:1053A0001B0E00009F30F207130E00005931FC075E
:1053B000150E00009B31FC07170E00005532FC074C
:1053C000190E00005932FC07150D00006D32FC0764
:1053D000210D00007132FC07220D00007532FC0720
:1053E000AD3DFC07CF3DFC070000000000000000C1
:1053F000FB2AFC07000000000D3EFC070000000037
:105400000B2BFC0700000000000000000000000063
:10541000132BFC07252BFC072D2BFC073F2BFC0730
:10542000000000006D2BFC07792BFC07000000003A
:1054300000000000A92BFC07B12BFC0700000000B6
:1054400000000000ED2BFC07000000000000000041
:10545000000000000000000000000000000000004C
:10546000000000000000000000000000F130FC0718
:10547000FD34FC073B33FC077932FC07E736FC07B9
:10548000CB38FC076539FC07F8000000C12EFC078B
:105490003D2CFC07E053FC07D93EFC076C54FC078D
:1054A000548DFC079A8DFC07848DFC0703000010C7
:1054B00000010000021400007936FC0701240000FE
:1054C0007938FC07032400007D38FC070424000021
:1054D0008138FC07130400008538FC071404000021
:1054E0009D38FC07FD0000003C55FC070A00000049
:1054F0002739FC0700000000000000000000000049
:10550000FF0000000000000000000000000000009C
:1055100000000000000000000000000000FF00008C
:1055200000000000000000000000000001FF02FF7A
:1055300003FF002803280229000A01003255FC0756
:105540000200000008000000100010001C55FC07BD
:105550003455FC07020000000100000000000000BC
:10556000000000002C55FC070200000001020000B2
:105570000F000000000000003655FC07020000008C
:105580000980020002000000000000003455FC0702
:105590000200000001000000000000000000000008
:1055A0002E55FC0702000000088200000A000000DF
:1055B000000000003655FC070200000009800200D0
:1055C00002000000000000003455FC07020000004B
:1055D0000100000000000000000000003055FC0742
:1055E00002000000000200000F00000000000000A8
:1055F0003655FC070200000009800200020000008E
:10560000000000004546FC077549FC07854AFC0779
:10561000F99DF00700000000E3A1F1070000000081
:105620004FA4F107000000006056FC076056FC071D
:10563000C8060000904EFC07C08BFC07C08BFC071F
:10564000E0020000904EFC070E0000000102000086
:10565000100E0000300000000000000000010000FB
:0400000507FC0111E2
:00000001FF
